:020000040800F2
:10000000000C002049010008A11300088312000819
:100010004913000825110008B91B00080000000062
:100020000000000000000000000000007916000839
:1000300051110008000000004D1400083518000898
:100040006301000863010008630100086301000800
:1000500063010008630100086301000863010008F0
:1000600063010008630100086301000863010008E0
:1000700063010008630100086301000863010008D0
:1000800063010008630100086301000863010008C0
:1000900063010008630100086301000863010008B0
:1000A00063010008630100086301000863010008A0
:1000B0006301000863010008630100086301000890
:1000C0006301000863010008630100086301000880
:1000D00063010008D51800080D1900085D19000813
:1000E0006301000863010008630100086301000860
:1000F0006301000863010008630100086301000850
:10010000630100086301000863010008630100083F
:10011000630100086301000863010008630100082F
:10012000630100086301000863010008630100081F
:10013000DFF810D000F058FB004800479D2700086A
:10014000AFF30080000C00200648804706480047B7
:10015000FEE7FEE7FEE7FEE7FEE7FEE7FEE7FEE777
:10016000FEE7FEE775180008310100080649074A56
:100170000868504343F23902104408604008704751
:100180000149086070470000600000206D4EC641C4
:10019000D2B201E000F8012B491EFBD270470022C9
:1001A000F6E710B513460A4604461946FFF7F0FF76
:1001B000204610BD421E12F8013F002BFBD111F862
:1001C000013B02F8013B002BF9D1704730B50546E1
:1001D0002A460B4612F8010B13F8014B08B1A04256
:1001E000F8D01CB1002802D06D1CF1E7284630BDC4
:1001F00010B5044604E00B7800F8013B03B1491C3C
:10020000521EF8D2204610BD421C10F8011B0029D6
:10021000FBD1801A7047034611F8012B00F8012B1F
:10022000002AF9D1184670472DE9FE4F81EA0304F0
:1002300004F0004421F0004100944FF0000B23F043
:10024000004350EA01045ED052EA03045BD0C3F3DA
:100250000A54C1F30A552C44A4F2F3340194A0FBD0
:100260000254C1F3130141F48011C3F3130343F4A7
:10027000801301FB024400FB034E840A970A44EA00
:10028000815447EA8357A4FB076802958D0A05FB52
:1002900007854FEA932C04FB0C542705029D4FEA77
:1002A000065847EA1637B5EB08056EEB070C870EC4
:1002B000920E47EA811742EA8312A7FB0201B6EBCE
:1002C0000B0164EB00042B0D43EA0C335E1844EB86
:1002D0001C50DA465146E7FB0201C5F313044FEA0E
:1002E0000B3343EA14534FEA0432019C43EA0603FA
:1002F000A4F10C040294009CCDE900B400F0DFF8F6
:1003000003B0BDE8F08F00200146F9E7C10F80EA95
:10031000E0700844CA079623002100F093B800F06B
:10032000004230F000400AD0C10D01F56071C0F309
:10033000160042EA0151C2084007114370470020ED
:100340000146704701F0004330B421F0004150EA0B
:10035000010206D00A0DA2F56072C1F31301002A52
:1003600002DC30BC00207047440F44EAC104C100E5
:10037000E01830BC00EBC25000F05BB8002801DB95
:10038000C0F10040002901DBC1F10041814270470A
:10039000002801DBC0F10040002901DBC1F1004170
:1003A0008842704730B50B460146002020220124C8
:1003B00009E021FA02F59D4205D303FA02F5491B33
:1003C00004FA02F52844151EA2F10102F1DC30BD49
:1003D0002DE9F05F0546002092469B46884606467A
:1003E000814640241BE0284641464746224600F00D
:1003F0001CFA53465A46C01A914110D3114618466A
:10040000224600F003FA2D1A67EB01084F462246F8
:100410000120002100F0FAF917EB00094E41201EDF
:10042000A4F10104DFDC484631462A464346BDE8D4
:10043000F09F0029A8BF7047401C490008BF20F06A
:100440000100704710B4B0FA80FC00FA0CF050EADA
:10045000010404BF10BC704749B1CCF1200421FA5B
:1004600004F411FA0CF118BF012121430843A3EB56
:100470000C01CB1D4FEA00614FEA102042BF002063
:1004800010BC704700EBC35010440029A4BF10BC3F
:100490007047401C490008BF20F0010010BC7047A5
:1004A00010B5141E73F1000408DA401C41F100017C
:1004B00092185B411A4301D120F0010010BD2DE9D3
:1004C000F04D92469B4611B1B1FA81F202E0B0FACA
:1004D00080F22032904600F099F904460F4640EA37
:1004E0000A0041EA0B0153465A46084313D011460D
:1004F00053EA010019D0C8F14002504600F095F9C6
:1005000005460E4650465946424600F07FF90843DC
:1005100005D0012004E020463946BDE8F08D0020DA
:10052000054346EAE0762C4337430A986305E40A1C
:10053000A0EB08000022FD0A44EA47540A3002D525
:1005400000200146E9E7010510196941DDE9084588
:1005500000196941BDE8F04DA2E72DE9FE4F804644
:1005600081EA0300C00F0C46009021F0004123F007
:100570000045B8EB0200A94105D24046214690460D
:100580001C460B46024623F00040104347D0270D7F
:10059000C7F30A00C3F30A510290401A01904028A1
:1005A0006BDAC3F3130040F4801B0098924620B12D
:1005B0000023D2EB030A63EB0B0B01985946C0F101
:1005C0004002504600F022F906460D465046594674
:1005D000019A00F03AF910EB08006141002487EA23
:1005E000115284EAE7731A4340D0009A62B3019A29
:1005F000012A4FEA075215DC001B61EB02014FF0A4
:10060000004202EA0752CDE90042001C41F5801188
:1006100032462B46FFF753FF03B0BDE8F08F40464C
:100620002146F9E7001B61EB0201001C41F5801334
:1006300000185B412018A2F5001747EB030140EAC0
:10064000D570B6196D4111E06D084FEA360645EADE
:10065000C0754FEA0752001B61EB0201001C41F517
:10066000801149084FEA30000019514132462B46AB
:1006700003B0BDE8F04FFFF713BF00980122400020
:100680000023D0EB020263EBE073009821464FEAAF
:10069000E074B8EB000061EB0401E9E783F000438C
:1006A0005BE781F0004158E72DE9F04D81EA030452
:1006B00004F0004B21F0004514464FF0000A23F0EF
:1006C000004150EA050220D054EA01021DD0C5F3D2
:1006D0000A570246C5F31303C1F31300C1F30A56C8
:1006E00040F4801543F48013A7EB0608101BD64690
:1006F00008F2FD3873EB050002D308F1010801E0B0
:1007000092185B41B8F1000F03DA00200146BDE802
:10071000F08D00204FF48011064684460EE0171B32
:1007200073EB050705D3121B63EB050306434CEA85
:10073000010C49084FEA300092185B4150EA01076A
:10074000EDD152EA030012D082EA040083EA0501E7
:10075000084305D0101BAB4106D20122002306E05E
:1007600000224FF0004302E06FF0010253101AEB39
:1007700006004CEB085110EB0A0041EB0B01BDE801
:10078000F04DFFF78DBEC1F30A52C1F3130140F2E1
:10079000FF3341F480119A4202DA0020014670478B
:1007A00040F233439A42A2F2334202DC524200F05A
:1007B0003CB800F02BB8000030B5041E71F1000405
:1007C00004DB4FF00044404264EB0101141E73F15E
:1007D000000405DB1C464FF00043524263EB040368
:1007E000994208BF904230BD064C074D06E0E068D4
:1007F00040F0010394E8070098471034AC42F6D368
:10080000FFF79AFC002F0008202F0008202A04DBA5
:10081000203A00FA02F1002070479140C2F1200313
:1008200020FA03F3194390407047202A04DB203A52
:1008300021FA02F00021704721FA02F3D040C2F100
:1008400020029140084319467047202A06DBCB1747
:10085000203A41FA02F043EAE07306E041FA02F37B
:10086000D040C2F120029140084319467047000071
:1008700010B500F0DDFE00F0CBFE1021104800F0B6
:10088000FEFC022001F056FF10210D4800F0F7FC9D
:1008900020210B4800F0E8FC012802D1094908702A
:1008A00002E00020074908701021054800F0E5FC2F
:1008B000052001F03FFF00F0CDFE0248007810BD9A
:1008C000000801403900002070B5002400F0B0FE9F
:1008D00000F09EFE00251DE06006040E052001F0DC
:1008E00029FF10210D4800F0CAFC20210B4800F020
:1008F000BBFC012801D1012600E000260EB1601CDE
:10090000C4B2052001F016FF1021044800F0B5FC28
:10091000681CC5B2082DDFDB204670BD0008014011
:1009200010B5044600F074FE00F094FE24B92021B6
:100930000B4800F0A2FC03E02021094800F09FFCD6
:100940001021074800F09BFC022001F0F3FE10216B
:10095000034800F092FC052001F0ECFE10BD000001
:100960000008014070B5044600F052FE00F072FE2F
:10097000002520E0052001F0DDFE04F0800020B11C
:1009800020210F4800F07BFC03E020210C4800F000
:1009900074FC052001F0CEFE1021094800F06FFC28
:1009A000052001F0C7FE1021054800F066FC600636
:1009B000040E681CC5B2082DDCDBFFF759FF70BDC3
:1009C0000008014010B500F023FE00F043FE202196
:1009D0000A4800F054FC1021084800F050FC0220A6
:1009E00001F0A8FE2021054800F047FC022001F09C
:1009F000A1FE1021014800F040FC10BD000801409C
:100A000010B500F005FE00F025FE20210A4800F098
:100A100034FC1021084800F032FC022001F08AFE6C
:100A20002021054800F02BFC022001F083FE10215C
:100A3000014800F022FC10BD0008014038B5002438
:100A40001FA001F0A5F84FF4967001F04DFE00F0E4
:100A50006BFB1E4801681EA001F0D2F84FF48071B4
:100A60002148FFF79CFB40F2EE3020A3009017488E
:100A700022A102681C4801F0D3F81B4801F088F855
:100A80004FF4967001F030FE26A12A48FFF79EFB36
:100A90002949086000BF0AE0641C22A12548FFF72D
:100AA00095FB25490860642C01DD002403E0224801
:100AB00000680028F0D000BF00F036FB38BD000011
:100AC00041542B4347534E3D310D0A005400002042
:100AD000736F636B6574206E756D626572203D2067
:100AE00025640D0A000000006800002038312E3611
:100AF000382E3233392E34302000000041542B512F
:100B0000494F50454E3D312C25642C2255445022EE
:100B10002C222573222C25642C313233342C300DB9
:100B20000A0000002B51494F50454E3A20302C30DE
:100B300000000000EC0200204800002010B5002456
:100B400022A001F025F84FF47A7001F0CDFD4FF4AA
:100B50007A7001F0C9FD4FF47A7001F0C5FD00F024
:100B6000E3FA1EA001F014F84FF4967001F0BCFDFA
:100B70001EA12148FFF72AFB2049086000F0D4FAA3
:100B800013E0641C00F0D0FA14A001F001F84FF457
:100B90007A7001F0A9FD15A11748FFF717FB174957
:100BA0000860642C01DD002403E01448006800287C
:100BB000E7D000BF00F0B8FA11A000F0E9FF4FF451
:100BC000967001F091FD00F0AFFA10BD41542B5129
:100BD000474E5353433D310D0A00000041542B5101
:100BE000474E5353433F0D0A000000002B51474E20
:100BF0005353433A20310000EC020020480000200B
:100C000041542B51474E535352443D224E4D454182
:100C10002F524D43220D0A0010B5002400208A49AE
:100C200008608AA000F0ECFF8DA000F0B1FF4FF447
:100C3000967001F059FD8C4800F0D2FF8BA000F0B7
:100C4000DFFF8EA18848FFF7C1FA8D49086000F0E8
:100C50006BFA11E08BA000F0D3FF00F065FA80A0E2
:100C600000F096FF4FF4967001F03EFD83A17E48A0
:100C7000FFF7ACFA82490860814800680028E9D093
:100C800087A000F085FF4FF4967001F02DFD87A13D
:100C90007548FFF79BFA7A4908600846006858B91A
:100CA0007149083183A000F0ABFF00F03DFA4FF42A
:100CB000967001F019FD0CE00120634908606A4953
:100CC00081A000F09DFF00F02FFA4FF4967001F024
:100CD0000BFD81A000F05CFF4FF4967001F004FD65
:100CE00066A16148FFF772FA6549086000F01CFAD6
:100CF0006348006840B100F017FA7BA000F080FF65
:100D00004FF4967001F0F0FC7BA000F041FF4FF42F
:100D1000967001F0E9FC7BA15348FFF757FA584958
:100D2000086000F001FA002416E0641C00F0FCF9F1
:100D300071A000F02DFF4FF4967001F0D5FC71A169
:100D40004948FFF743FA4E490860642C04DD01204E
:100D50003D490860002403E0494800680028E4D0C9
:100D600000BF6BA000F014FF4FF4967001F0BCFCC4
:100D700042A13D48FFF72AFA414908600846006849
:100D800048B1394965A000F03BFF00F0CDF94FF4C0
:100D9000967001F0A9FC69A000F0FAFE4FF496707D
:100DA00001F0A2FC68A13048FFF710FA344908604E
:100DB0000846006848B12C4965A000F021FF00F00A
:100DC000B3F94FF4967001F08FFC65A000F0E0FEDF
:100DD0004FF4967001F088FC64A12348FFF7F6F900
:100DE0002749086064A12048FFF7F0F965490860C9
:100DF00000F09AF900241CE0641C00F095F958A05A
:100E000000F0C6FE4FF4967001F06EFC57A1164834
:100E1000FFF7DCF91A49086057A11348FFF7D6F924
:100E200058490860642C04DD01200749086000244B
:100E300006E01348006818B9524800680028DBD063
:100E400000BF0148006810BD50000020737461723B
:100E50007420696E697420424332300D0A0000002C
:100E600041540D0A00000000EC0200206765742068
:100E70006261636B20424332300D0A004F4B000029
:100E8000480000200D0AB5A5C6ACBBFAD5FDD4DAE2
:100E9000C1ACBDD3B5BDC4A3BFE92E2E2E0D0A0033
:100EA00041542B43494D490D0A0000004552524F11
:100EB00052000000CED2B5C4BFA8BAC5CAC7203AF6
:100EC000202573200D0A0000BFA8B4EDCEF3203A10
:100ED000202573200D0A000041542B4347415454F0
:100EE0003D310D0A00000000696E697420504450C5
:100EF000204F4B0D0A00000041542B4347415454EE
:100F00003F0D0A002B43474154543A203100000062
:100F100041542B5142414E443F0D0A003D3D3D3D61
:100F20003D3D3D3D42414E443D3D3D3D3D3D3D3DD0
:100F30003D200D0A202573200D0A000041542B434B
:100F400053510D0A000000002B43535100000000D4
:100F5000D0C5BAC5D6CAC1BF3A25730D0A00000074
:100F600041542B43455245473F0D0A002B43455200
:100F700045473A20302C31002B43455245473A2013
:100F8000312C31004C00002010B500241FA000F0CF
:100F9000FFFD4FF4967001F0A7FB00F0C5F81FA00D
:100FA00000F0F6FD4FF4967001F09EFB1EA1214863
:100FB000FFF70CF92049086000F0B6F813E0641C54
:100FC00000F0B2F815A000F0E3FD4FF4967001F0C8
:100FD0008BFB15A11748FFF7F9F817490860642C37
:100FE00001DD002403E0144800680028E7D000BFBA
:100FF00012A000F0CDFD4FF4967001F075FB00F0EB
:1010000093F812A000F0FCFD10BD000041542B43EA
:101010004750414444523D310D0A000041542B4396
:10102000474154543F0D0A002B43474154543A2042
:1010300031000000EC0200204800002041542B51F8
:1010400049434C4F53453D300D0A00000D0A6A7567
:10105000737420636C6F7365206F6C6420736F63AF
:101060006B65740D0A000000F8B504460D460026B5
:101070004FF480711B48FFF792F823461A480095F9
:101080001AA10268174800F0CBFD164800F080FD59
:101090004FF4967001F028FB1AA11B48FFF796F851
:1010A0001A4908600AE0761C16A11748FFF78EF867
:1010B00016490860642E01DD002603E0134800682D
:1010C0000028F0D000BF12A10F48FFF77FF80F49AA
:1010D00008600846006808B100F0A6F900F024F89E
:1010E000F8BD0000680000205400002041542B513E
:1010F0004953454E4445583D25642C25732C257392
:101100000D0A00004F4B0000EC02002048000020B8
:10111000736F636B65745F74206973204E554C4C1C
:101120000000000000BFFEE710B5084800F058FDC1
:101130004FF4967001F0D8FA00200449C1F8040178
:101140004FF480710148FFF72AF810BDEC0200202F
:1011500070472DE9F04102460025002600200023BB
:101160000024002791F803C00CF00F0591F803C08C
:101170000CF0100CBCF1000F03D091F802C04CEA47
:10118000050591F800C0BCF1000F31D014680020B3
:101190002BE04FF0010C0CFA00F3B1F800C00CEAA0
:1011A00003069E4220D183004FF00F0C0CFA03F788
:1011B000BC4305FA03FC4CEA040491F803C0BCF1FB
:1011C000280F06D14FF0010C0CFA00FCC2F814C035
:1011D0000AE091F803C0BCF1480F05D14FF0010CB3
:1011E0000CFA00FCC2F810C0401C0828D1D31460CF
:1011F000B1F800C0BCF1FF0F34DD546800202EE0D0
:1012000000F1080C4FF0010808FA0CF3B1F800C027
:101210000CEA03069E4221D183004FF00F0C0CFA1A
:1012200003F7BC4305FA03FC4CEA040491F803C03D
:10123000BCF1280F05D100F1080C08FA0CF8C2F82F
:10124000148091F803C0BCF1480F07D100F1080CDD
:101250004FF0010808FA0CF8C2F81080401C08286A
:10126000CED35460BDE8F0810246002093680B4065
:101270000BB1012000E0002070474161704701611F
:10128000704700BFFEE710B50B21312000F083FA54
:1012900008212C2000F07FFA08212D2000F07BFA95
:1012A00080212E2000F077FA00211E2000F073FA32
:1012B00000211F2000F06FFA0521202000F06BFABA
:1012C000002010BD08B50121042000F0D1F8012054
:1012D000ADF8000048208DF8030069460148FFF78B
:1012E00038FF08BD0008014008B50121142000F0B6
:1012F000BFF84FF48070ADF8000010208DF80300A7
:1013000003208DF8020069460D48FFF722FF4FF4D5
:1013100080710B48FFF7B1FF4FF40050ADF80000AB
:1013200010208DF8030003208DF80200694605485F
:10133000FFF70FFF4FF400510248FFF79EFF08BD73
:10134000000801400010014000BFFEE710B5FFF7A4
:1013500039FBA620FFF706FB3220FFF703FBFFF760
:1013600031FBA720FFF7FEFA00240EE0FFF7ACFAEE
:101370000A490855052C03D10120FFF7D1FA02E0F4
:101380000020FFF7CDFA601CC4B2062CEEDBFFF79D
:1013900037FB052001F0CEF910BD00002C00002025
:1013A0007047000070B5002100230F22C47804B3F9
:1013B000154C246804F4E064C4F5E064210AC1F12A
:1013C0000403CA40447804FA03F1847814402143AA
:1013D00009010E4C0678A155047804F01F0501247C
:1013E000AC4005786D11AD0005F1E025C5F8004170
:1013F00009E0047804F01F050124AC40044D067890
:10140000761145F8264070BD0CED00E000E400E0E8
:1014100080E100E002490143024A11607047000088
:101420000000FA050CED00E00648006800F4E060FA
:1014300005490843001D03490860BFF34F8F00BFF3
:10144000FEE700000CED00E00000FA057047000028
:1014500029B1064AD2690243044BDA6104E0034A27
:10146000D2698243014BDA617047000000100240EC
:1014700029B1064A92690243044B9A6104E0034A87
:1014800092698243014B9A6170470000001002404C
:1014900030B500210022002400232D4D6D6805F099
:1014A0000C0121B1042905D0082923D105E0294DDB
:1014B000056022E0274D05601FE0254D6D6805F4AD
:1014C0007012234D6D6805F48034022505EB9242BD
:1014D0001CB9214D554305600BE01D4D6D6805F4A9
:1014E00000351DB11C4D5543056002E0194D5543B3
:1014F000056002E0174D056000BF00BF144D6D6828
:1015000005F0F0010909154D6B5C0568DD4045608B
:101510000F4D6D6805F4E061090A104D6B5C45687C
:10152000DD4085600A4D6D6805F46051C90A0B4DB8
:101530006B5C4568DD40C560054D6D6805F4404154
:10154000890B074D6B5CC568B5FBF3F5056130BDD4
:101550000010024000127A0000093D001500002032
:10156000250000202DE9F047FFF7F0FE2348007822
:101570002249497800EB01242046FEF7C7FE814648
:10158000FEF7CDFE07464FF033321D4BFEF74CFE03
:101590000546FEF7D7FE1B490860184880781749B2
:1015A000C97800EB01242046FEF7B0FE8146FEF725
:1015B000B6FE07464FF03332114BFEF735FE0546B7
:1015C000FEF7C0FE104908600C4800790B494979C4
:1015D00000EB01242046FEF799FE8146FEF79FFEB0
:1015E00007464FF03332064BFEF71EFE0546FEF768
:1015F000A9FE06490860BDE8F08700002C00002025
:1016000033330F403C000020400000204400002005
:1016100008B51020ADF800008DF8030003208DF808
:10162000020069460148FFF794FD08BD000801402B
:1016300008B52020ADF8000048208DF803000320F5
:101640008DF8020069460248FFF783FD08BD0000DF
:101650000008014008B52020ADF8000010208DF8EA
:10166000030003208DF8020069460248FFF771FD70
:1016700008BD000000080140704710B500F002F8F6
:1016800010BD00000CB500200190009033480068A8
:1016900040F480303149086000BF3048006800F4F1
:1016A000003000900198401C0190009818B90198F2
:1016B000B0F5A06FF1D12948006800F4003010B1F6
:1016C0000120009001E0002000900098012843D103
:1016D0002348006840F0100021490860084600686F
:1016E00020F0030008600846006840F0020008602F
:1016F0001A484068194948600846406848600846EA
:10170000406840F4806048600846406820F47C10DF
:1017100048600846406840F4E810486008460068A1
:1017200040F08070086000BF0C48006800F0007056
:101730000028F9D00948406820F0030007494860B4
:101740000846406840F00200486000BF0348406817
:1017500000F00C000828F9D10CBD00000010024078
:101760000020024070B50446FFF72CF9A620FFF7D1
:10177000F9F82046FFF7F6F8FFF724F9A720FFF75E
:10178000F1F8FFF7A1F805460120FFF7C9F8FFF7C8
:1017900037F9284670BD70B505460C46FFF712F9BB
:1017A000A620FFF7DFF82846FFF7DCF82046FFF712
:1017B000D9F8FFF725F970BD2DE9F04105460C4633
:1017C0000027B846002605B11CB94FF0FF30BDE830
:1017D000F0812846FEF718FD10B96FF00100F6E71A
:1017E0000EE02E78371106F00F08384600F0E6F9C3
:1017F0002070641C404600F0E1F92070641C6D1CF0
:1018000028780028EDD1207000BFE0E7042808D137
:101810004FF0E021096941F004014FF0E02211612D
:1018200007E04FF0E021096921F004014FF0E022C8
:10183000116170477047000010B504466FF0040056
:10184000FFF7E4FFE11704EB5171C1F3C701074A49
:1018500011701046007800EB4001C1EBC0104FF64C
:10186000FF7101EAC0000249088010BD5800002045
:101870005A00002010B51348006840F001001149DB
:10188000086008464068104908400E49486008460C
:1018900000680E4908400B4908600846006820F4BB
:1018A000802008600846406820F4FE0048604FF43D
:1018B0001F008860FFF7E1FE4FF0006004490860F8
:1018C00010BD0000001002400000FFF8FFFFF6FE10
:1018D00008ED00E010B540F225510A4800F097F8F5
:1018E00070B1084800F04EF9C1B20748D0F80421A1
:1018F000D0F80401401C044BC3F80401184681547D
:1019000010BD000000380140E401002010B540F295
:101910002551114800F07BF801280BD10E4800F04A
:1019200031F9C4B2204601F0DBF940F225510A48F2
:1019300000F045F80821084800F05CF801280AD1B9
:10194000054800F01FF9C4B2204601F0C9F908218A
:10195000014800F02BF810BD0044004010B540F2E3
:101960002551114800F053F801280BD10E4800F022
:1019700009F9C4B2204600F09DFE40F225510A4804
:1019800000F01DF80821084800F034F801280AD1B9
:10199000054800F0F7F8C4B2204600F08BFE08219D
:1019A000014800F003F810BD0048004001F4007247
:1019B000B2F5007F00D100BFCA430280704710B566
:1019C0000022002340F66A14A14200D100BF0A128F
:1019D00001249440A3B2DC43048010BD21B182896C
:1019E00042F40052828104E082894DF6FF731A406E
:1019F0008281704702460020B1F5007F00D100BF10
:101A000013880B400BB1012000E00020704770B537
:101A10000246002400230025002040F66A16B14249
:101A200000D100BFC1F3421501F01F03012606FAE1
:101A300003F3012D02D19689334006E0022D02D135
:101A4000168A334001E0968A33400C12012606FACA
:101A500004F41688344013B10CB1012000E00020DA
:101A600070BDF0B50346002400260025002040F696
:101A70006A17B94200D100BF1846C1F3421401F001
:101A80001F06012707FA06F5012C01D10C3004E0EE
:101A9000022C01D1103000E014301AB107682F4336
:101AA000076002E00768AF430760F0BD2DE9F0472B
:101AB00086B005460E460024A24600BFA146002778
:101AC000B08900B100BF2F462C8A4CF6FF7004404D
:101AD000F08804432C82AC894EF6F3100440B088A1
:101AE00031890843718908430443AC81AC8A4FF6BD
:101AF000FF400440B0890443AC8201A8FFF7C8FC52
:101B00001F48874202D1DDF810A001E0DDF80CA0EB
:101B1000A88900F4004040B10AEBCA0000EB0A10AB
:101B200031684900B0FBF1F807E00AEBCA0000EBAE
:101B30000A1031688900B0FBF1F86420B8FBF0F0BE
:101B400004012009642101FB1089A88900F40040E8
:101B500040B1322000EBC900B0FBF1F000F007000B
:101B6000044308E0322000EB09106421B0FBF1F0DF
:101B700000F00F0004432C8106B0BDE8F0870000A0
:101B80000038014001468888C0F308007047000013
:101B90000BE000BF0749098801F040010029F9D096
:101BA0000178044A121D1180401C01780029F0D1EF
:101BB000704700000044004000BFFEE701460020DF
:101BC000002905DB092903DC01F13002D0B206E06F
:101BD000092904DD102902DA01F13702D0B2704779
:101BE0000FB4054B10B503A9044A029800F0DAF9C6
:101BF00010BC5DF814FB0000812700086400002081
:101C00000FB4054B10B503A9044A029800F0EEF892
:101C100010BC5DF814FB0000812700086400002060
:101C20000FB4084B10B504A902AA039800F0DEF81F
:101C3000044602A9002000F038FD204610BC5DF8E3
:101C400014FB0000AB26000802E008C8121F08C100
:101C5000002AFAD170477047002001E001C1121F2D
:101C6000002AFBD1704700002DE9FF5F82B0002100
:101C7000DDE90430020DDDF840B0034318D044F62E
:101C80001050A2F2FF3242431514119801281FD0C0
:101C9000A5EB0B00401C5FEA000A4FF000064E4F18
:101CA000DFF83891B046504615D5CAF1000413E06C
:101CB000119801244AA3012801D16FEA0B0102986F
:101CC000119AC0E90031C0E9024206B0BDE8F09FB8
:101CD000CBF10000DFE704460021404A491842EBFF
:101CE0000450CDE9001012E0E00707D032463B4631
:101CF00040464946FEF798FA8046894632463B46BA
:101D000010461946FEF790FA06460F466410002C5E
:101D1000EAD1DDE90401DDE90023BAF1000F06DABA
:101D2000FEF782FA42464B46FEF77EFA05E0FEF7E2
:101D3000BBFC42464B46FEF7B7FC04460E4600226B
:101D4000284BFEF739FD03D84FF0FF30014607E07E
:101D50000022254B20463146FEF7FFFBFEF713FD20
:101D6000102409E0002C0ADB0A220023FEF730FBD6
:101D7000039B30321A55641E50EA0102F2D1641CF2
:101D8000039AC4F111031444119A012A03D00122C9
:101D900008430DD10AE0084304D000204FF0110B96
:101DA000119072E7A3EB0B056D1E0DE05B4504DDA2
:101DB0004FF0000205F1010504E003DA4FF00002E4
:101DC000A5F10105002AECD002981199C0E9023171
:101DD000C0E9004579E70000000014400000F03F32
:101DE000300000000000F0430000E03F2DE9FF4F0D
:101DF0008BB09A460F460546002606E025280BD0F4
:101E000052460D9990476D1C761C28780028F5D114
:101E10000FB03046BDE8F08F0024A0460122604993
:101E200000E0044315F8013F203B02FA03F00842AA
:101E3000F7D128782E2817D115F8010F44F00404A3
:101E40002A280ED06FF02F022878A0F1300109293E
:101E50000AD808EB880102EB410100EB01086D1C78
:101E6000F2E757F8048B6D1C287869283ED006DC11
:101E70000028CDD063280BD0642804D136E0732825
:101E800010D075284BD052460D999047761C85E0AE
:101E900017F8040B8DF8000000208DF80100E946CA
:101EA000012003E057F8049B4FF0FF3061074FF02B
:101EB000000401D40AE0641C44450DDA8442FADBD4
:101EC00019F804100029F6D106E0641C8442FCDBFA
:101ED00019F804100029F8D1264404E019F8010B80
:101EE00052460D999047641EF8D257E001CF4FF04B
:101EF0000A0B002802DA40422D2102E0210504D518
:101F00002B218DF82410012103E0E10705D02021C9
:101F1000F7E70DF1200908910CE00021F9E701CF66
:101F20004FF00A0BF9E75946FEF73CFA01F130028F
:101F300009F8012D0028F6D1ADEB090000F1200BC6
:101F4000600701D44FF00108D84502DDA8EB0B0073
:101F500000E000208046002406E009A85246005D0B
:101F60000D999047641C761C08988442F5DB04E0C8
:101F7000302052460D999047761CB8F10001A8F127
:101F80000108F5DC05E019F8010B52460D99904760
:101F9000761CBBF10001ABF1010BF4DC6D1C34E7E6
:101FA000092801002DE9FF4F95B09A46884606465C
:101FB0000025EEE1252877D100242746F94A0121A2
:101FC000039400E0044316F8013F203B01FA03F0BC
:101FD0001042F7D130782A2811D06FF02F033078D3
:101FE000A0F13002092A16D8039A44F0020402EB49
:101FF000820203EB42021044761C0390EFE758F88C
:10200000042B0392002A03DA504244F40054039054
:1020100044F00204761C30782E2816D116F8010FF1
:1020200044F004042A280DD06FF02F023078A0F17C
:102030003003092B09D807EB870302EB4303C718CA
:10204000761CF3E758F8047B761C30786C280FD0A8
:1020500006DC4C2817D068280DD06A2814D104E07B
:10206000742810D07A280FD10DE044F400140AE04F
:1020700044F4801401E044F440147278824202D1A6
:1020800004F58014761C761C307866280BD013DC9F
:10209000582877D009DC002875D04528F6D0462886
:1020A000F4D047281AD193E118E0632835D064288A
:1020B00079D0652812D18BE1702873D008DC6728AD
:1020C000F1D069286FD06E280DD06F2806D1ACE012
:1020D00073282CD0752874D0782853D0524617997D
:1020E00090476D1C54E1C4F30250022809D0032824
:1020F0000DD0D8F8001004280DD00D6008F10408A8
:1021000046E1D8F80010EA17C1E90052F6E7D8F81E
:1021100000100D80F2E70D70F0E718F8041B8DF841
:10212000001000208DF80100EB46012003E058F874
:1021300004BB4FF0FF3061074FF0000102D40DE007
:1021400009F101018946B9420FDA8145F8DB1BF834
:1021500009100029F4D108E009F101018946814202
:10216000FADB1BF809100029F6D103985346A0EBBF
:10217000090721463846179A00F080FA284400EBF8
:10218000090507E044E008E10DE01BF8010B5246A9
:1021900017999047B9F10109F7D2534621463846BD
:1021A000179AF2E039E00A21C4F302524FF0000B13
:1021B0000091022A06D058F8040BC117032A09D04F
:1021C0000AE023E008F1070020F00702F2E802012C
:1021D000904605E000B2C117042A01D140B2C117F0
:1021E000002906DA0A460021404261EB02012D2255
:1021F00002E0220504D52B228DF80420012203E001
:10220000E20701D02022F7E7914657E00A2100E0DB
:1022100010214FF0000B00910BE010214FF0000B4C
:1022200044F004040827009103E008204FF0000B5D
:102230000090C4F30252022A05D058F8040B002182
:10224000032A08D008E008F1070020F00702F2E8AE
:102250000201904603E080B2042A00D1C0B24FF0E0
:10226000000922072AD53278702A07D0DDF800C08D
:102270008CF0100C5CEA0B0C05D00EE040228DF8BF
:102280000420012208E050EA010306D030238DF833
:1022900004308DF8052002229146009B83F008034C
:1022A00053EA0B030AD150EA010201D1620705D5B6
:1022B00030228DF804204FF001097F1E3278582A11
:1022C00004D039A20C920CAA02920BE03BA2F9E7CF
:1022D0005B46009AFEF77CF80C9B9B5C029A521EB0
:1022E0000292137050EA0102F2D1029804A9081A6E
:1022F00000F1200B600702D524F4803400E00127B0
:102300005F4502DDA7EB0B0000E0002000EB0B01B6
:10231000009003984944401A0390E00306D45346C2
:102320002146179A039800F0A9F90544002706E012
:1023300001A85246C05D179990476D1C7F1C4F4500
:10234000F6DBE0030CD553462146179A039800F0BC
:1023500095F9054404E030205246179990476D1CCA
:102360000099481E00900029F5DC08E002980299C7
:1023700052460078491C0291179990476D1CBBF199
:102380000001ABF1010BF1DC5BE100F065F9054404
:10239000761C307800287FF40DAE19B02846BDE8D1
:1023A000F08F0000092801003031323334353637E0
:1023B0003839616263646566000000003031323391
:1023C0003435363738394142434445460000000031
:1023D000600700D4062708F1070020F00700F0E8A6
:1023E0000223804603F0004C5FEA0C0001D097A066
:1023F00009E0200501D596A005E0E00701D095A0F1
:1024000001E0AFF24C001390307823F000436528D0
:102410000CD006DC452809D046281DD047287FD19E
:102420003BE0662818D067287AD136E00021112FCA
:1024300001DB112000E0781CCDE9000104A90CA803
:10244000FFF712FCDDE90D010C9A4FF0000B07F1CC
:102450000109109200914EE04FF000400097CDE945
:10246000011004A90CA8FFF7FFFBDDE90D020C9B8E
:102470000F994FF0000B91461093009211B9791CFF
:1024800000EB0109B7EB090003D4C0F1FF3B07F1F2
:102490000109A9EB0700019042E0012F00DA0127B2
:1024A0000021112F01DD112000E03846CDE90001A7
:1024B00004A90CA8FFF7D8FBDDE90D010C9A0091E7
:1024C0004FF0000BB946109221070FD4009A4A45ED
:1024D00003DA914601E0A9F10109B9F1010F05DD27
:1024E000109AA9F10101515C3029F4D0B84202DA06
:1024F00010F1040F03DA0121CDE9011010E00028EA
:1025000003DC8344A9EB000102E0411C494500DDE6
:102510008946A0EB0B00401C01904FF00040029058
:10252000200705D40198484502DB4FF0FF300190A9
:1025300000208DF84B0002980DF14B07B0F1004FD1
:1025400025D002200C902B200D90029800280CDA48
:10255000404202902D200D9007E00A210298FDF7DD
:1025600021FF3031029007F8011D0C99481E0C9094
:102570000029F2DC02980028EFD1791E0D9808702E
:10258000307800F0200040F0450007F8020D11A857
:10259000C01BC01D02901398007800B1012000EB11
:1025A0000901019801EBE071029801440398401A77
:1025B000401E0390E00306D453462146179A039821
:1025C00000F05CF805441398007818B1524617994A
:1025D00090476D1CE00323D553462146179A039874
:1025E00000F04CF805441BE0BBF1000F07DB00983E
:1025F000584504DD1098179910F80B0001E0179961
:1026000030205246904701980BF1010B401E05F116
:102610000105019004D12E205246179990476D1C58
:10262000B9F10001A9F10109DEDC05E017F8010BA1
:102630005246179990476D1C0299481E0290002936
:10264000F4DC53462146179A03989EE62D000000BD
:102650002B000000200000002DE9F0410446002579
:102660001E461746880404D405E039462020B047AA
:102670006D1C641EF9D52846BDE8F0812DE9F041B6
:10268000044600251E469046C80301D5302700E0C9
:102690002027880404D505E041463846B0476D1C24
:1026A000641EF9D52846BDE8F0810A68531C0B600A
:1026B000107070470D2807D10021094AC2F8041193
:1026C0000121084A11700AE00549D1F80421D1F826
:1026D0000411491C024BC3F8041119468854704771
:1026E000F40300205C0000200146114A12884A438E
:1026F0004FF0E0235A6100229A611A46126942F0B3
:1027000001021A6100BF4FF0E022106900F00102DF
:102710001AB100F48032002AF5D04FF0E02212699D
:1027200022F001024FF0E0231A6100229A61704703
:102730005A0000200146114A12784A434FF0E02324
:102740005A6100229A611A46126942F001021A6126
:1027500000BF4FF0E022106900F001021AB100F44E
:102760008032002AF5D04FF0E022126922F00102F7
:102770004FF0E0231A6100229A6170475800002050
:1027800000BF054A128802F04002002AF9D0C2B206
:10279000014B1B1D1A80704700380140ADF5DA6D02
:1027A000002001904820FFF747F84FF4A060FEF7A3
:1027B00031FE4FF4165000F0ABFA4FF4E13000F068
:1027C000F7FA4FF4165000F049FBFEF78DFDFEF7C7
:1027D00079FD0120F64908606420FFF785FF00209D
:1027E000F449C1F8B401FEF74EFDF3A0FFF708FA73
:1027F0000020FEF7B7FFE52806D1F1A0FFF700FAA9
:10280000C820FFF771FF05E0F1A0FFF7F9F90320F9
:10281000FFF76AFF0120F349086000BFFEF7FCF9EB
:102820000028FBD1FEF78AF9FEF7AEFBFEF706F9AA
:102830004FF4FA60FFF758FFB9E1FEF775FCEAA024
:10284000FFF7A6F94FF4FA60FFF74EFFECA1EE4850
:10285000FDF7BCFC00287DD04FF480710DF5BA6007
:10286000FDF79DFC4FF48071F4A8FDF798FC4FF440
:102870008071B4A8FDF793FC4FF480710DF59A6058
:10288000FDF78DFC4FF4807142A8FDF788FC4FF4F2
:10289000807102A8FDF783FCDB4A2232DBA10DF533
:1028A000BA60FFF7BDF9FEF73FFC0DF5BA60FDF722
:1028B000ABFCA0F108052A460DF5BA61B4A8FDF7F6
:1028C00097FC50208DF8D20242A8FDF79DFC42A94A
:1028D0004518CFA12846FDF79EFC42A8FDF794FCC1
:1028E00042A9451802220DF2E3512846FDF780FC6B
:1028F00042A8FDF789FC42A945180122C7A1284634
:10290000FDF776FC42A8FDF77FFC42A9451802229C
:102910000DF2E5512846FDF76BFC42A8FDF774FC6B
:1029200042A9451804220DF5BD612846FDF760FC5B
:1029300042A8FDF769FC42A94518B9A12846FDF750
:102940006AFC42A8FDF760FC42A9451803220DF27B
:10295000EF5100E0F6E02846FDF74AFC42A8FDF7FB
:1029600053FC42A945180122ACA12846FDF740FCC2
:1029700042A8FDF749FC42A9451802220DF2F25186
:102980002846FDF735FC42A8FDF73EFC42A9451854
:1029900004220DF2F5512846FDF72AFC4FF4807110
:1029A0000DF59A60FDF7FBFB64219BA8FDF7F7FB93
:1029B00000BFC820019054E00198401E01900124FE
:1029C000002C4ED00024FEF7CDFD98480078401C26
:1029D000964908706420FFF787FE9549954800687E
:1029E000FDF7CCFC05D3944992480068FDF7D0FC74
:1029F00004D292480078401C904908708B480078B7
:102A000064282EDB8E480068032825D38B48007885
:102A1000012811DB0120664908600320FFF764FEEE
:102A200088480068401C8749086000208649087073
:102A300086A0FFF7E5F80FE000205D49086001205F
:102A4000814908705A4987A0FFF7DAF80320FFF799
:102A50004BFE00207B4908600020784908707349CC
:102A6000087001980028A7D184A19BA8FDF7A2FBBC
:102A7000642182A8FDF793FBFDF778FB8149097873
:102A8000814A1278891A90FBF1F201FB12007E490B
:102A9000097845182A467DA182A8FFF7C1F882A9C6
:102AA0009BA8FDF787FB7AA19BA8FDF783FBFDF7A9
:102AB0005DFB79490978794A1278891A90FBF1F21D
:102AC00001FB12007549097845182A466FA182A8B2
:102AD000FFF7A6F882A99BA8FDF76CFB70A19BA845
:102AE000FDF768FB5848027868A182A8FFF798F8BC
:102AF00082A99BA8FDF75EFB6DA19BA8FDF75AFB81
:102B00009BA942A8FDF756FB42A8FDF77DFB0546B1
:102B10002A465EA10DF59A60FFF782F80DF59A61DD
:102B200064A0FFF76DF802A942A8FEF745FE02A9CE
:102B30000DF59A60FEF798FA42A8FFF761F848A0F1
:102B4000FFF75EF83F480068032817D300202549A7
:102B500008600320FFF7C8FD5948D0F8A01159A01C
:102B6000FFF74EF801201F4908600320FFF7BCFD66
:102B7000002034490860324908601AE71948A03833
:102B80000068A0B90320FFF7AFFD1648A038006821
:102B900068B900202B490860054908604CA0FFF780
:102BA0002FF80320FFF7A0FD00202549086044E628
:102BB000B4012242000022423333333300000000CC
:102BC0004144584C333435204F4B210D0A0000004E
:102BD0004144584C333435204572726F72210D0ACE
:102BE00000000000A001214241542B51474E535395
:102BF00052443D224E4D45412F524D43220D0A0075
:102C000024474E524D430000EC0200202573000083
:102C10004750535F6C61743A000000002E000000C2
:102C2000264750535F6C6F673A0000000200002097
:102C3000008009443C00002000401C4601000020A8
:102C4000080000200400002014000020626F647956
:102C50005F7374617475733D3020CBA4B5B92020C7
:102C60000D0A0000626F64795F7374617475733D5F
:102C7000312020D5FDB3A30D0A0000002668656150
:102C800072743A000D0000200C0000202564000042
:102C900026626C6F6F643A00100000200F00002065
:102CA00026626F64795F7374617475733A00000013
:102CB000230000006C656E7374723D25730D0A006D
:102CC00000002142C9F9B9E2B1A8BEAF000000007E
:102CD000C8A1CFFBB1A8BEAF20200D0A00000000A4
:102CE0000A49D1F80411FF2904D90021074AC2F882
:102CF00004110AE00549D1F80421D1F80411491C56
:102D0000024BC3F80411194688547047EC020020A6
:102D100010B586B00446012144F20400FEF7A8FB7A
:102D20004FF40070ADF8140003208DF81600182041
:102D30008DF8170005A91C48FEF70BFA4FF48060C8
:102D4000ADF8140004208DF8170005A91648FEF709
:102D500000FA25208DF8000003208DF801008DF881
:102D6000020001208DF803006846FEF71BFB01946A
:102D70000020ADF80800ADF80A00ADF80C00ADF881
:102D800010000C20ADF80E0001A90848FEF78EFED9
:102D9000012240F225510548FEF763FE0121034858
:102DA000FEF71CFE06B010BD0008014000380140CF
:102DB00010B586B0044601212548FEF749FB0420E2
:102DC000ADF8140018208DF8170003208DF81600B8
:102DD00005A92048FEF7BDF90820ADF8140004202D
:102DE0008DF8170005A91B48FEF7B3F926208DF8CA
:102DF000000003208DF8010002208DF80200012060
:102E00008DF803006846FEF7CDFA01940020ADF876
:102E10000800ADF80A00ADF80C00ADF810000C2069
:102E2000ADF80E0001A90C48FEF740FE012240F269
:102E300025510948FEF715FE01210748FEF7CEFD92
:102E4000012240F225510448FEF70BFE06B010BDEA
:102E500004000200000801400044004010B586B0A4
:102E6000044601218804FEF7F3FA01210820FEF749
:102E7000FFFA4FF48060ADF8140018208DF81700A9
:102E800003208DF8160005A91B48FEF762F94FF4E0
:102E90000060ADF8140004208DF8170005A916484D
:102EA000FEF757F927208DF8000001208DF801006A
:102EB0008DF802008DF803006846FEF773FA01945E
:102EC0000020ADF80800ADF80A00ADF80C00ADF830
:102ED00010000C20ADF80E0001A90848FEF7E6FD31
:102EE000012240F225510548FEF7BBFD01210348B0
:102EF000FEF774FD06B010BD000C01400048004014
:102F0000202F00080000002068000000481C000876
:102F1000882F000868000020980B0000581C00084B
:102F20000000000000000000030000004E52005F9F
:102F30006100000000000000000102030401020320
:102F4000040607080902040608000000000000004B
:102F50000000000000000000000000000000000071
:102F60000000000000000000000000000000000061
:102F70000000000000000000000000000000000051
:082F8000000000000000000049
:0400000508000131BD
:00000001FF
